S01100004D6F64756C61746F722E737265635C
S11300000C9434000C9448000C9446000C94460064
S11300100C9446000C9446000C9446000C94460044
S11300200C9446000C9446000C9446000C94460034
S11300300C9446000C9446000C94D7000C94460093
S11300400C9446000C9446000C949C010C944600BD
S11300500C9446000C9446000C9446000C94460004
S11300600C9446000C94460011241FBECFEFD8E038
S1130070DEBFCDBF22E0A0E0B1E001C01D92AE30F2
S1130080B207E1F70E94B9000C94DC010C94000063
S11300901F920F920FB60F9211242F933F934F93F9
S11300A05F936F937F938F939F93AF93BF93EF93DC
S11300B0FF9383E091E00E940B01E8988091020194
S11300C08130A9F018F0823089F13BC00E948B0185
S11300D0882351F00E946F01809301015B985F981F
S11300E081E0809302012DC05B9A5F9A2AC08091BF
S11300F0010190E00090000102C0959587950A9453
S1130100E2F780FF03C05B985F9802C05B9A5F9A36
S1130110809100018F5F883018F48093000111C032
S11301201092000182E0809302010BC080910101D2
S113013080FF03C05B9A5F9A02C05B985F9810923D
S11301400201FF91EF91BF91AF919F918F917F91A8
S11301506F915F914F913F912F910F900FBE0F9030
S11301601F901895E9E6F0E0808183608083E89A27
S113017008958AB18A688AB98BB189608BB90E9463
S1130180CE010E94FC000E94B2007894F89445E0ED
S113019050E060E070E083E091E00E941901882360
S11301A021F07894E099E09AE89A7894EFCF1F923E
S11301B00F920FB60F9211248F939F93AF93BF9317
S11301C08091070190910801A0910901B0910A0161
S11301D00196A11DB11D8093070190930801A0937E
S11301E00901B0930A01BF91AF919F918F910F9034
S11301F00FBE0F901F90189584B5826084BD85B59D
S1130200836085BDEEE6F0E08081826080838DE7C7
S113021087BD789408954091070150910801609139
S1130220090170910A01FC01408351836283738345
S113023008950F931F9300910701109108012091D5
S1130240090130910A01FC0180819181A281B3816D
S1130250081B190B2A0B3B0B81E004171507260713
S1130260370708F480E01F910F910895EBE0F1E067
S113027090812181921316C020910D0130910E01BD
S11302802F3F310579F4E92FF0E0E55FFE4F8483D9
S11302909F5F90930B019F3FF9F4EBE0F1E0108234
S11302A011820895ABE0B1E0E92FF0E0E55FFE4F85
S11302B0848312962D913C9113972F5F3F4F139691
S11302C03C932E9312979F5F9F3F19F090930B01DD
S11302D0089510920B01089590930C010895809154
S11302E00C018F5F8F3F19F080930C0102C01092B4
S11302F00C01EBE0F1E08281938101979383828387
S1130300E181E11103C080910D020895F0E0E55F01
S1130310FE4F83810895EBE0F1E090818181981391
S113032009C081E020910D0130910E01232B19F4B5
S113033080E0089581E008951F920F920FB60F9206
S113034011242F933F934F935F936F937F938F93D6
S11303509F93AF93BF93CF93DF93EF93FF93C1EC3E
S1130360D0E088818F7788838091C6000E9436010F
S1130370888180688883FF91EF91DF91CF91BF914D
S1130380AF919F918F917F916F915F914F913F9129
S11303902F910F900FBE0F901F901895E1ECF0E095
S11303A0808188698083E2ECF0E0808186608083CC
S10F03B083E38093C4000895F894FFCF09
S9030000FC
