S01100004D6F64756C61746F722E737265635C
S11300000C9434000C9453000C9451000C94510043
S11300100C9451000C9451000C9451000C94510018
S11300200C9451000C9451000C9451000C94510008
S11300300C9451000C9451000C9430010C94510018
S11300400C9451000C9451000C94E7010C94510051
S11300500C9451000C9451000C9451000C945100D8
S11300600C9451000C94510011241FBECFEFD8E022
S1130070DEBFCDBF11E0A0E0B1E0EAE3FAE002C0E8
S113008005900D92A630B107D9F722E0A6E0B1E0C1
S113009001C01D92A831B207E1F70E9412010C942D
S11300A01B050C9400001F920F920FB60F9211249F
S11300B0DF92EF92FF920F931F932F933F934F93EF
S11300C05F936F937F938F939F93AF93BF93CF93DC
S11300D0DF93EF93FF938DE091E00E946401E89831
S11300E080910701813009F46AC058F0823009F424
S11300F076C079C0CE01885F9E4F0E942702219668
S11301000AC0C0E0D0E00F2EF1E0EF2EF1E0FF2EA8
S1130110F02D08E011E00E94E4011F928F93FF92FA
S1130120EF921F930F930E9431020F900F900F9044
S11301300F900F900F90C817D907E4F20E94E401C2
S11301408730D0F10E94C801D82EC0E0D0E00F2E35
S1130150F0E0EF2EF1E0FF2EF02D08E011E006C0F4
S1130160CE01885F9E4F0E94270221961F92DF9244
S1130170FF92EF921F930F930E9431020F900F9002
S11301800F900F900F900F90C817D9074CF38AE087
S1130190D81229C00E94C8010E94C8010E94C80147
S11301A00E94C8010E94C8010E94C8015B985F9820
S11301B081E08093070117C05B9A5F9A14C05B9A31
S11301C05F9A809106018F5F803118F48093060155
S11301D00AC01092060182E08093070104C05B9874
S11301E05F9810920701FF91EF91DF91CF91BF913A
S11301F0AF919F918F917F916F915F914F913F91BB
S11302002F911F910F91FF90EF90DF900F900FBEF1
S11302100F901F901895E9E6F0E080818360808359
S1130220E89A08958AB18A688AB98BB189608BB9D2
S11302300E9419020E9455010E940B017894F894BF
S113024045E050E060E070E08DE091E00E947201D2
S1130250882321F07894E099E09AE89A7894EFCF93
S11302601F920F920FB60F9211248F939F93AF9307
S1130270BF938091110190911201A0911301B0914B
S113028014010196A11DB11D8093110190931201D7
S1130290A0931301B0931401BF91AF919F918F91DB
S11302A00F900FBE0F901F90189584B5826084BD87
S11302B085B5836085BDEEE6F0E080818260808351
S11302C08DE787BD789408954091110150911201F2
S11302D06091130170911401FC0140835183628386
S11302E0738308950F931F930091110110911201CC
S11302F02091130130911401FC0180819181A2812C
S1130300B381081B190B2A0B3B0B81E0041715075B
S11303102607370708F480E01F910F910895E5E15F
S1130320F1E090812181921316C020911701309140
S113033018012F3F310579F4E92FF0E0EB5EFE4F11
S113034084839F5F909315019F3FF9F4E5E1F1E009
S1130350108211820895A5E1B1E0E92FF0E0EB5E8F
S1130360FE4F848312962D913C9113972F5F3F4F3C
S113037013963C932E9312979F5F9F3F19F090938F
S1130380150108951092150108959093160108958A
S1130390809116018F5F8F3F19F08093160102C080
S11303A010921601E5E1F1E0828193810197938334
S11303B08283E181E11103C0809117020895F0E086
S11303C0EB5EFE4F838108958091170108951F927B
S11303D00F920FB60F9211242F933F934F935F9375
S11303E06F937F938F939F93AF93BF93CF93DF9339
S11303F0EF93FF93C1ECD0E088818F77888380915D
S1130400C6000E948F01888180688883FF91EF91E4
S1130410DF91CF91BF91AF919F918F917F916F9118
S11304205F914F913F912F910F900FBE0F901F90AE
S11304301895E1ECF0E0808188698083E2ECF0E0DB
S113044080818660808383E38093C4000895DC0107
S1130450E0ECF0E0908195FFFDCF8C918093C60095
S11304600895AEE0B0E0E7E3F2E00C94F2040D8905
S11304701E8986E08C831A8309838FEF9FE79E830E
S11304808D83AE01475E5F4F6F89788DCE010196F3
S11304900E945302EF81F885E00FF11F10822E961F
S11304A0E4E00C940E05ABE0B0E0E9E5F2E00C9476
S11304B0E4046C017B018A01FC01178216828381AA
S11304C081FFCCC1CE0101963C01F6019381F70175
S11304D093FD859193FF81917F01882309F4BAC12B
S11304E0853239F493FD859193FF81917F018532A3
S11304F029F4B60190E00E944A04E7CF912C212C04
S1130500312CFFE1F315D8F08B3279F038F48032D6
S113051079F08332A1F4232D20611DC08D3261F066
S1130520803369F4232D216016C0832D8260382E18
S1130530E32DE4603E2E2AC0F32DF8601DC037FC85
S11305402DC020ED280F2A3040F08E32B9F436FC4D
S113055081C1232D2064322E19C036FE06C08AE0E4
S1130560989E200D1124922E11C0EAE02E9E200D9B
S11305701124222EF32DF0623F2E08C08C3621F474
S1130580832D8068382E02C0883641F4F70193FD2C
S1130590859193FF81917F018111B3CF982F9F7D26
S11305A09554933028F40C5F1F4F9FE399830DC03B
S11305B0833631F0833771F0833509F059C021C097
S11305C0F801808189830E5F1F4F88248394912CC6
S11305D0530113C02801F2E04F0E511CF801A08012
S11305E0B18036FE03C0692D70E002C06FEF7FEF6B
S11305F0C5010E943F044C018201F32DFF773F2E79
S113060016C0280122E0420E511CF801A080B180DE
S113061036FE03C0692D70E002C06FEF7FEFC501A5
S11306200E9434044C01F32DF0683F2E820133FC08
S11306301BC0822D90E088169906B0F4B60180E2C2
S113064090E00E944A042A94F4CFF50137FC859186
S113065037FE81915F01B60190E00E944A042110A7
S11306602A9421E0821A91088114910471F7E8C058
S1130670843611F0893641F5F80137FE07C06081F0
S11306807181828193810C5F1F4F08C060817181E9
S1130690072E000C880B990B0E5F1F4FF32DFF766E
S11306A03F2E97FF09C090958095709561957F4F77
S11306B08F4F9F4FF0683F2E2AE030E0A3010E9445
S11306C08604882E861845C0853731F4232D2F7E65
S11306D0B22E2AE030E025C0932D997FB92E8F36B3
S11306E0C1F018F4883579F0B5C0803719F088372F
S11306F021F0B0C0E92FE061BE2EB4FE0DC0FB2D89
S1130700F460BF2E09C034FE0AC0292F2660B22E21
S113071006C028E030E005C020E130E002C020E15E
S113072032E0F801B7FE07C0608171818281938154
S11307300C5F1F4F06C06081718180E090E00E5F06
S11307401F4FA3010E948604882E8618FB2DFF7775
S11307503F2E36FE0DC0232D2E7FA22E891458F471
S113076034FE0BC032FC09C0832D8E7EA82E05C03A
S1130770B82CA32C03C0B82C01C0B92CA4FE0FC004
S1130780FE01E80DF11D8081803321F49A2D997EBC
S1130790A92E09C0A2FE06C0B394B39404C08A2D46
S11307A0867809F0B394A3FC11C0A0FE06C0B2146D
S11307B088F4280C922C9B180EC0B21460F4B60175
S11307C080E290E00E944A04B394F7CFB21418F484
S11307D02B1802C0982C212CA4FE10C0B60180E373
S11307E090E00E944A04A2FE17C0A1FC03C088E75F
S11307F090E002C088E590E0B6010CC08A2D8678AE
S113080059F0A1FE02C08BE201C080E2A7FC8DE298
S1130810B60190E00E944A04891438F4B60180E3DA
S113082090E00E944A049A94F7CF8A94F301E80D69
S1130830F11D8081B60190E00E944A048110F5CF39
S1130840222009F442CEB60180E290E00E944A04DC
S11308502A94F6CFF6018681978102C08FEF9FEF2D
S11308602B96E2E10C940005FC0105906150704068
S11308700110D8F7809590958E0F9F1F0895FC0165
S11308806150704001900110D8F7809590958E0FBB
S11308909F1F08950F931F93CF93DF93FB01238131
S11308A021FD03C08FEF9FEF2CC022FF16C04681AD
S11308B05781248135814217530744F4A081B181C3
S11308C09D012F5F3F4F318320838C932681378195
S11308D02F5F3F4F3783268314C08B01EC01FB014C
S11308E00084F185E02D0995892BE1F6D80116964F
S11308F08D919C911797019617969C938E931697BA
S1130900CE01DF91CF911F910F910895FA01AA278B
S1130910283051F1203181F1E8946F936E7F6E5F3E
S11309207F4F8F4F9F4FAF4FB1E03ED0B4E03CD0EC
S1130930670F781F891F9A1FA11D680F791F8A1FCF
S1130940911DA11D6A0F711D811D911DA11D20D036
S113095009F468943F912AE0269F11243019305DF0
S11309603193DEF6CF010895462F4770405D4193E1
S1130970B3E00FD0C9F7F6CF462F4F70405D4A332E
S113098018F0495D31FD4052419302D0A9F7EACFF6
S1130990B4E0A6959795879577956795BA95C9F725
S11309A000976105710508959B01AC010A2E069418
S11309B05795479537952795BA95C9F7620F731FD1
S11309C0841F951FA01D08952F923F924F925F920E
S11309D06F927F928F929F92AF92BF92CF92DF924B
S11309E0EF92FF920F931F93CF93DF93CDB7DEB7B0
S11309F0CA1BDB0B0FB6F894DEBF0FBECDBF099444
S1130A002A88398848885F846E847D848C849B849A
S1130A10AA84B984C884DF80EE80FD800C811B81A8
S1130A20AA81B981CE0FD11D0FB6F894DEBF0FBED7
S10D0A30CDBFED010895F894FFCF47
S1090A3A0D25640D00000F
S9030000FC
