:100000000C9434000C9493000C9446000C9446001D
:100010000C9446000C9446000C9446000C94460048
:100020000C9446000C9446000C9446000C94460038
:100030000C9446000C9446000C9435010C94460038
:100040000C9446000C9446000C94EC010C94460071
:100050000C9446000C9446000C9446000C94460008
:100060000C9446000C94460011241FBECFEFD8E03C
:10007000DEBFCDBF22E0A0E0B1E001C01D92AF30F5
:10008000B207E1F70E944F000C942C020C94000080
:10009000E9E6F0E0808183608083E89A08958AB180
:1000A0008A688AB98BB189608BB90E941E020E944E
:1000B0005A010E9448007894F89445E050E060E0CE
:1000C00070E084E091E00E947701882321F0789429
:1000D000E099E09AE89A7894EFCFBC01DC01FC014A
:1000E000339620E08D91220F922F990F990F290FAF
:1000F0002053280FEA17FB07A9F730E0322F2227F9
:100100006A5F7F4F90E08191990F492F440F440F10
:10011000940F9053980FE617F707A9F7A901490F15
:10012000511DCA0108951F920F920FB60F9211240C
:10013000EF92FF920F931F932F933F934F935F93F1
:100140006F937F938F939F93AF93BF93EF93FF939F
:10015000CF93DF93CDB7DEB72697DEBFCDBFFE01CD
:10016000319686E0DF011D928A95E9F784E091E0FF
:100170000E946901E89880910301813071F120F0BB
:10018000823009F44AC054C00E94E901873010F15E
:100190000E94CD018A3009F04BC08E010F5F1F4FC6
:1001A0007E01B7E0EB0EF11C0E94CD01F8018193B6
:1001B0008F01EE15FF05C1F7CE0101960E946D007B
:1001C00090930201809301015B985F9881E0809396
:1001D00003012EC05B9A5F9A2BC080910101909120
:1001E00002010090000102C0969587950A94E2F7FB
:1001F00080FF03C05B985F9802C05B9A5F9A809112
:1002000000018F5F803118F48093000111C01092BB
:10021000000182E0809303010BC08091010180FF07
:1002200003C05B9A5F9A02C05B985F9810920301CB
:1002300026960FB6F894DEBF0FBECDBFDF91CF91EB
:10024000FF91EF91BF91AF919F918F917F916F91AE
:100250005F914F913F912F911F910F91FF90EF90E0
:100260000F900FBE0F901F9018951F920F920FB610
:100270000F9211248F939F93AF93BF9380910801A6
:1002800090910901A0910A01B0910B010196A11D65
:10029000B11D8093080190930901A0930A01B093C6
:1002A0000B01BF91AF919F918F910F900FBE0F9057
:1002B0001F90189584B5826084BD85B5836085BD27
:1002C000EEE6F0E08081826080838DE787BD7894E0
:1002D0000895409108015091090160910A017091BF
:1002E0000B01FC01408351836283738308950F9354
:1002F0001F93009108011091090120910A0130918A
:100300000B01FC0180819181A281B381081B190B33
:100310002A0B3B0B81E0041715072607370708F463
:1003200080E01F910F910895ECE0F1E09081218130
:10033000921316C020910E0130910F012F3F31050D
:1003400079F4E92FF0E0E45FFE4F84839F5F9093A0
:100350000C019F3FF9F4ECE0F1E010821182089566
:10036000ACE0B1E0E92FF0E0E45FFE4F8483129649
:100370002D913C9113972F5F3F4F13963C932E93F3
:1003800012979F5F9F3F19F090930C010895109270
:100390000C01089590930D01089580910D018F5FD8
:1003A0008F3F19F080930D0102C010920D01ECE017
:1003B000F1E082819381019793838283E181E1114E
:1003C00003C080910E020895F0E0E45FFE4F838148
:1003D000089580910E0108951F920F920FB60F920B
:1003E00011242F933F934F935F936F937F938F933A
:1003F0009F93AF93BF93CF93DF93EF93FF93C1ECA2
:10040000D0E088818F7788838091C6000E94940114
:10041000888180688883FF91EF91DF91CF91BF91B0
:10042000AF919F918F917F916F915F914F913F918C
:100430002F910F900FBE0F901F901895E1ECF0E0F8
:10044000808188698083E2ECF0E08081866080832F
:0C04500083E38093C4000895F894FFCF6C
:00000001FF
